:100000000C945D000C947A000C947A000C947A00A5
:100010000C947A000C947A000C947A000C945A0197
:100020000C947A000C947A000C947A000C947A0068
:100030000C947A000C947A000C947A000C947A0058
:100040000C9410010C947A000C947A000C947A00B1
:100050000C947A000C947A000C947A000C947A0038
:100060000C947A000C947A00000000080002010051
:100070000003040700000000000000000000000072
:10008000240027002A0001020408102040800102F9
:1000900004081020010204081020000000002500C0
:1000A00028002B00040404040404040402020202D5
:1000B0000202030303030303020011241FBECFEF58
:1000C000D4E0DEBFCDBF11E0A0E0B1E0E0E8FCE0AD
:1000D00002C005900D92A236B107D9F721E0A2E641
:1000E000B1E001C01D92AC37B207E1F70E94B60142
:1000F0000C943E060C9400003FB7F8948091780170
:1001000090917901A0917A01B0917B0126B5A89BCD
:1001100005C02F3F19F00196A11DB11D3FBFBA2F99
:10012000A92F982F8827820F911DA11DB11DBC01F9
:10013000CD0142E0660F771F881F991F4A95D1F7BE
:10014000089590910001891324C0E8EBF0E0E49158
:100150009FEF90930001E130B9F098F0E230C9F4DC
:10016000909170009D7F9093700091E09093B0000B
:100170009091B100987F94609093B1001092B30079
:1001800008C010926E0005C090916F009D7F909303
:100190006F0090E0FC01E859FF4F2491FC01EA5701
:1001A000FF4F3491FC01EC55FF4FE491EE23B9F180
:1001B000222339F1233091F038F42130A9F0223094
:1001C00001F584B58F7D12C0273091F02830A1F061
:1001D0002430B9F4809180008F7D03C0809180002D
:1001E0008F77809380000DC084B58F7784BD09C060
:1001F0008091B0008F7703C08091B0008F7D809395
:10020000B000F0E0EE0FFF1FE656FF4FA591B4914E
:100210009FB7F8948C91309538233C939FBF0895F5
:100220001F920F920FB60F9211242F933F938F932B
:100230009F93AF93BF938091740190917501A091AA
:100240007601B09177013091730123E0230F2D37B0
:1002500020F40196A11DB11D05C026E8230F0296CA
:10026000A11DB11D209373018093740190937501BA
:10027000A0937601B09377018091780190917901F4
:10028000A0917A01B0917B010196A11DB11D8093CF
:10029000780190937901A0937A01B0937B01BF918B
:1002A000AF919F918F913F912F910F900FBE0F9023
:1002B0001F9018951F920F920FB60F9211242F9333
:1002C0003F934F935F936F937F938F939F93AF93DE
:1002D000BF93EF93FF938091670190916801A09184
:1002E0006901B0916A01892B8A2B8B2B51F1909176
:1002F0006201E0916301F09164018081892780832C
:100300008091670190916801A0916901B0916A01A3
:10031000181619061A061B06C4F4809167019091FD
:100320006801A0916901B0916A010197A109B10921
:100330008093670190936801A0936901B0936A016B
:1003400004C0809100010E94A100FF91EF91BF9134
:10035000AF919F918F917F916F915F914F913F915D
:100360002F910F900FBE0F901F901895CF93DF9392
:10037000CDB7DEB72B970FB6F894DEBF0FBECDBF5B
:10038000789484B5826084BD84B5816084BD85B570
:10039000826085BD85B5816085BD80916E0081607C
:1003A00080936E0010928100809181008260809322
:1003B0008100809181008160809381008091800024
:1003C0008160809380008091B10084608093B1004F
:1003D0008091B00081608093B00080917A00846049
:1003E00080937A0080917A00826080937A00809175
:1003F0007A00816080937A0080917A00806880938F
:100400007A001092C10081E391E098878F8301E028
:1004100011E01A870987D8012D903C90EF81F8856B
:1004200081919191F887EF839E838D838091000164
:10043000853021F08F3F09F0AAC105C0E8EBF0E05C
:10044000F491FB8770C085E080930001E8EBF0E059
:10045000F491FB87FF3F09F49AC1F13009F442C0DF
:1004600038F1F23009F05FC01092B0001092B10084
:100470008091B00082608093B0008091B100816073
:100480008093B100E9EAF0E08491E82FF0E0EE0F0C
:10049000FF1FE656FF4F85919491909364018093DE
:1004A0006301EBE8F0E0849180936201F2E039C0EF
:1004B00014BC15BC84B5826084BD85B5816085BDE2
:1004C000E9EAF0E08491E82FF0E0EE0FFF1FE65636
:1004D000FF4F85919491EBE8F0E084918093660161
:1004E0001B8624C0109280001092810080918100B0
:1004F0008860809381008091810081608093810079
:10050000E9EAF0E08491E82FF0E0EE0FFF1FE656F5
:10051000FF4F85919491EBE8F0E084918093650121
:10052000F1E0FB8703C02B8527FD31C1EBE8F0E04C
:100530004491E9EAF0E08491882399F090E0880FF3
:10054000991FFC01E458FF4FA591B491FC01E656B8
:10055000FF4F259134918FB7F8949C91492B4C9380
:100560008FBFC101A0E0B0E089839A83AB83BC83D5
:10057000AD81BE814D01A12CB12C8B858D7F09F001
:100580007AC060E072E18AE790E0A50194010E94E0
:10059000DF0429013A0169017A01B1E0CB1AD108DF
:1005A000E108F108EFEFCE16D104E104F10409F0FF
:1005B00008F44EC060E472E48FE090E0A50194017D
:1005C0000E94DF0469017A01F1E0CF1AD108E10845
:1005D000F1082B85223009F58FEFC816D104E1040C
:1005E000F10409F008F492C160E970ED83E090E055
:1005F000A50194010E94DF0469017A0191E0C91A02
:10060000D108E108F108AFEFCA16D104E104F10402
:1006100011F008F00AC183E027C0BFEFCB16D10468
:10062000E104F104B9F0B0F068E478EE81E090E024
:10063000A50194010E94DF0469017A01E1E0CE1A6C
:10064000D108E108F108FB85FF2309F461C12CC141
:1006500081E001C082E0BB85B11106C095B5987FED
:10066000892B85BD44C085E09091B100987F892B8E
:100670008093B1003CC060E072E18AE790E0A501A0
:1006800094010E94DF0469017A01E1E0CE1AD108E9
:10069000E108F108C114D104F1E0EF06F10488F09B
:1006A00068E478EE81E090E0A50194010E94DF0407
:1006B00069017A0181E0C81AD108E108F10883E0F4
:1006C00001C081E09B85913091F490918100987FE9
:1006D000892B8093810089819A81AB81BC81892B90
:1006E0008A2B8B2B61F42FEF3FEFA9012FC089815B
:1006F0009A81AB81BC81892B8A2B8B2B71F0AD81C8
:10070000BE81AA0FBB1F91010E94FE0428EE33E0B8
:1007100040E050E00E94BD0403C02FEF3FEFA9016D
:100720009B85913099F0923019F1911130C0C7BC7E
:1007300020936F01309370014093710150937201C7
:1007400080916E00826080936E0021C0D0928900FB
:10075000C092880020936B0130936C0140936D012F
:1007600050936E0180916F00826080936F000FC084
:10077000C092B300209367013093680140936901F0
:1007800050936A01809170008260809370000E5FC8
:100790001F4FA985BA856D917C9180E090E00E9401
:1007A000430526E636E646EA5FE30E94A9050E9475
:1007B0000D056B01770FEE08FF080E947C004B01CE
:1007C0005C01C114D104E104F104F1F00E947C0049
:1007D000DC01CB0188199909AA09BB09883E93401D
:1007E000A105B10570F3B1E0CB1AD108E108F10819
:1007F000E8EE8E0EE3E09E1EA11CB11CC114D104D4
:10080000E104F10419F7DDCF85E00E94A10081E346
:1008100091E08017910709F0FCCD80E090E0892BF2
:1008200009F4F1CD0E940000EECD68E478EE81E09D
:1008300090E0A50194010E94DF0469017A0191E032
:10084000C91AD108E108F108AFEFCA16D104E104D2
:10085000F10441F138F164E274EF80E090E0A50129
:1008600094010E94DF0469017A0181E0C81AD1086D
:10087000E108F1089FEFC916D104E104F10409F081
:1008800008F4F1CE62E17AE780E090E0A5019401FE
:100890000E94DF0469017A01A1E0CA1AD108E108C7
:1008A000F10819C084E0E0CEEFEFCE16D104E104E8
:1008B000F10409F008F45FC062E17AE780E090E0BB
:1008C000A50194010E94DF0469017A01B1E0CB1A0D
:1008D000D108E108F1082FEFC216D104E104F104B8
:1008E00099F090F0D301C2012AE0B595A7959795AC
:1008F00087952A95D1F76C017D01F1E0CF1AD108D7
:10090000E108F10887E0B0CE86E0AECE82E0ACCE62
:10091000AFEFCA16D104E104F10459F150F162E1DC
:100920007AE780E090E0A50194010E94DF0469016C
:100930007A0181E0C81AD108E108F1089FEFC916D1
:10094000D104E104F10499F090F0D301C2013AE03E
:10095000B595A795979587953A95D1F76C017D0147
:10096000E1E0CE1AD108E108F10885E077CE84E015
:1009700075CE83E073CE84E06ECEA1E21A2EAA1B60
:10098000BB1BFD010DC0AA1FBB1FEE1FFF1FA2173F
:10099000B307E407F50720F0A21BB30BE40BF50B3C
:1009A000661F771F881F991F1A9469F760957095C5
:1009B000809590959B01AC01BD01CF010895052E56
:1009C00097FB1EF400940E94F60457FD07D00E9486
:1009D000BD0407FC03D04EF40C94F60450954095EA
:1009E000309521953F4F4F4F5F4F089590958095DB
:1009F000709561957F4F8F4F9F4F0895A29FB001D3
:100A0000B39FC001A39F700D811D1124911DB29F42
:100A1000700D811D1124911D08950E941405689484
:100A2000B1110C94A30508950E94880588F09F5782
:100A300098F0B92F9927B751B0F0E1F0660F771F02
:100A4000881F991F1AF0BA95C9F714C0B13091F0F8
:100A50000E94A205B1E008950C94A205672F782F9B
:100A60008827B85F39F0B93FCCF3869577956795BD
:100A7000B395D9F73EF490958095709561957F4F29
:100A80008F4F9F4F0895E89409C097FB3EF49095CF
:100A90008095709561957F4F8F4F9F4F9923A9F057
:100AA000F92F96E9BB279395F695879577956795E6
:100AB000B795F111F8CFFAF4BB0F11F460FF1BC02A
:100AC0006F5F7F4F8F4F9F4F16C0882311F096E9BD
:100AD00011C0772321F09EE8872F762F05C066236B
:100AE00071F096E8862F70E060E02AF09A95660F24
:100AF000771F881FDAF7880F9695879597F90895DD
:100B000057FD9058440F551F59F05F3F71F04795BE
:100B1000880F97FB991F61F09F3F79F087950895A3
:100B2000121613061406551FF2CF4695F1DF08C0C2
:100B3000161617061806991FF1CF869571056105DF
:100B400008940895E894BB2766277727CB0197F987
:100B500008950E94BC050C942D060E941F0638F0D3
:100B60000E94260620F0952311F00C9416060C9492
:100B70001C0611240C94A3050E94800570F3959F18
:100B8000C1F3950F50E0551F629FF001729FBB2784
:100B9000F00DB11D639FAA27F00DB11DAA1F649F20
:100BA0006627B00DA11D661F829F2227B00DA11DD3
:100BB000621F739FB00DA11D621F839FA00D611D59
:100BC000221F749F3327A00D611D231F849F600D7A
:100BD000211D822F762F6A2F11249F5750409AF0A3
:100BE000F1F088234AF0EE0FFF1FBB1F661F771F2F
:100BF000881F91505040A9F79E3F510580F00C94FA
:100C000016060C94A3055F3FE4F3983ED4F3869553
:100C100077956795B795F795E7959F5FC1F7FE2B99
:100C2000880F911D9695879597F9089597F99F6775
:100C300080E870E060E008959FEF80EC0895002464
:100C40000A941616170618060906089500240A9431
:100C500012161306140605060895092E0394000CB7
:100C600011F4882352F0BB0F40F4BF2B11F460FF46
:100C700004C06F5F7F4F8F4F9F4F0895F894FFCF51
:100C8000FF7D007D007D00FA00FA00FA00FA00C83E
:100C9000007D007D007D007D007D007D007D00FAEF
:100CA00000FA00FA00FA00C8007D007D007D007D9A
:100CB00000E402E4024B02EE01EE01930293029380
:100CC000023F033F037003DC037003700370039360
:100CD000024B02E402E402E40293029302E4029370
:020CE000020010
:00000001FF
