:100000000C9462000C94C3010C949C010C948A0023
:100010000C948A000C948A000C948A000C948A0038
:100020000C948A000C948A000C948A000C94EA01C7
:100030000C948A000C948A000C948A000C948A0018
:100040000C9452010C948A000C948A000C948A003F
:100050000C948A000C948A000C948A000C948A00F8
:100060000C948A000C948A000000000023002600F3
:10007000290000000000240027002A0000000000E2
:10008000250028002B0004040404040404040202D4
:100090000202020203030303030301020408102007
:1000A0004080010204081020010204081020000012
:1000B0000008000201000003040700000000000027
:1000C0000000670311241FBECFEFD4E0DEBFCDBF19
:1000D00011E0A0E0B1E0EAEEF6E002C005900D927A
:1000E000A431B107D9F721E0A4E1B1E001C01D922C
:1000F000A03FB207E1F710E0C2E6D0E004C02197CC
:10010000FE010E946D03C136D107C9F70E94C502E6
:100110000C9473030C940000833081F028F4813038
:1001200099F08230A1F008958730A9F08830B9F0B5
:100130008430D1F4809180008F7D03C08091800055
:100140008F7780938000089584B58F7702C084B53F
:100150008F7D84BD08958091B0008F7703C080911A
:10016000B0008F7D8093B00008951F93CF93DF93ED
:10017000282F30E0F901E255FF4F8491F901E6564E
:10018000FF4FD491F901EA57FF4FC491CC23C1F03E
:10019000162F81110E948C00EC2FF0E0EE0FFF1F54
:1001A000E458FF4FA591B4919FB7F894111104C082
:1001B0008C91D095D82302C0EC91DE2BDC939FBFAD
:1001C000DF91CF911F910895CF93DF9390E0FC01D1
:1001D000E656FF4F2491FC01EA57FF4F8491882394
:1001E00061F190E0880F991FFC01EE58FF4FC59117
:1001F000D491FC01E458FF4FA591B491611109C05D
:100200009FB7F8948881209582238883EC912E23D0
:100210000BC0623061F49FB7F8948881322F30951B
:1002200083238883EC912E2B2C939FBF06C08FB71E
:10023000F894E8812E2B28838FBFDF91CF9108950A
:100240000895CF93DF93962FD72FC82F61E0892F82
:100250000E94E40061E08D2F0E94E40061E08C2F99
:10026000DF91CF910C94E4009091140181E08927F3
:1002700080931401882351F061E08DE00E94B50065
:1002800061E08EE00E94B50061E009C060E08DE0B1
:100290000E94B50060E08EE00E94B50060E08BE057
:1002A0000C94B5001F920F920FB60F9211242F934A
:1002B0003F938F939F93AF93BF938091EC01909165
:1002C000ED01A091EE01B091EF013091EB0123E03F
:1002D000230F2D3720F40196A11DB11D05C026E87E
:1002E000230F0296A11DB11D2093EB018093EC0119
:1002F0009093ED01A093EE01B093EF018091E7019F
:100300009091E801A091E901B091EA010196A11D47
:10031000B11D8093E7019093E801A093E901B093A8
:10032000EA01BF91AF919F918F913F912F910F90D3
:100330000FBE0F901F9018951F920F920FB60F923D
:1003400011242F933F934F935F936F937F938F93DA
:100350009F93AF93BF93EF93FF93E0910201F091CE
:1003600003010995FF91EF91BF91AF919F918F91FB
:100370007F916F915F914F913F912F910F900FBEA1
:100380000F901F9018951F920F920FB60F92112485
:100390002F933F934F935F936F937F938F939F938D
:1003A000AF93BF93EF93FF93E0910001F0910101B0
:1003B0000995FF91EF91BF91AF919F918F917F919F
:1003C0006F915F914F913F912F910F900FBE0F90C2
:1003D0001F9018951F920F920FB60F9211242F9312
:1003E0003F934F935F936F937F938F939F93AF93BD
:1003F000BF93CF93DF93EF93FF932091160130E0EB
:10040000F901E255FF4F8491F901E656FF4FD4916F
:10041000F901EA57FF4FC491CC2379F081110E9472
:100420008C00EC2FF0E0EE0FFF1FE859FF4FA59175
:10043000B491EC91ED2381E009F480E020911A0160
:1004400030911B012F5F3F4F30931B0120931A0106
:1004500090911901953618F096E0909315019091BE
:1004600015019430C9F128F4923069F09330D1F03D
:100470005EC0953009F451C0963009F058C091E043
:100480009093E60151C0811152C020911A01309120
:100490001B012436310508F442C01092E601109287
:1004A00019011CC0813009F042C0E091190191E0AE
:1004B0009E0F90931901F0E020911A0130911B01D9
:1004C000EE0FFF1FEB5EFE4F3087278310921B015C
:1004D00010921A0194E029C0811117C0E09119010E
:1004E00091E09E0F90931901F0E020911A01309154
:1004F0001B01EE0FFF1FEB5EFE4F3087278310922C
:100500001B0110921A0193E010C020911A01309142
:100510001B012536310558F007C0811108C0109223
:100520001B0110921A0103C095E090931501909160
:1005300018019923B9F081110AC08091170188230D
:1005400021F08091170161E009C02D9A0BC08091C4
:100550001701882331F08091170160E00E94B500F7
:1005600001C02D98FF91EF91DF91CF91BF91AF9195
:100570009F918F917F916F915F914F913F912F91BB
:100580000F900FBE0F901F901895789484B58260DD
:1005900084BD84B5816084BD85B5826085BD85B527
:1005A000816085BD80916E00816080936E001092A5
:1005B0008100809181008260809381008091810020
:1005C00081608093810080918000816080938000B1
:1005D0008091B10084608093B1008091B00081600F
:1005E0008093B00080917A00846080937A0080913B
:1005F0007A00826080937A0080917A008160809393
:100600007A0080917A00806880937A001092C1000D
:100610006091100170911101809112010E942101DD
:1006200060910D0170910E0180910F010E942101D6
:1006300060910A0170910B0180910C010E942101CF
:100640006091070170910801809109010E942101C8
:100650006091040170910501809106010E942101C1
:10066000F8941092800089E08093810080E293E00A
:1006700090938900809388001092850010928400E6
:1006800082E080936F007894809315011092190195
:100690008091160160E00E94E4001092180160E071
:1006A00083E00E94E40084E391E09093030180934F
:1006B000020180916900837F846080936900E99AD8
:1006C000C0E0D0E02097F1F30E940000FBCFE5E10D
:1006D000F1E082E0818313820895EE0FFF1F059001
:0A06E000F491E02D0994F894FFCF87
:1006EA0020012001090A0C0807060412130F111031
:0406FA000D0E0B00D6
:00000001FF
