:100000000C9463000C948B000C948B000C948B006C
:100010000C948B000C948B000C948B000C946D0250
:100020000C948B000C948B000C948B000C94DC02D1
:100030000C948B000C948B000C948B000C948B0014
:100040000C94F8010C948B000C948B000C948B0096
:100050000C948B000C948B000C948B000C948B00F4
:100060000C948B000C948B000200000000240027ED
:10007000002A0000000000250028002B00040404D2
:100080000404040404020202020202030303030341
:10009000030102040810204080010204081020011E
:1000A0000204081020000000080002010000030400
:1000B00007000000000000000000000000230026F0
:1000C00000290000010E11241FBECFEFD4E0DEBFD7
:1000D000CDBF11E0A0E0B1E0E4EDF1E202C0059097
:1000E0000D92A037B107D9F722E0A0E7B1E001C037
:1000F0001D92AD36B207E1F710E0C3E6D0E004C0D0
:100100002197FE010E94A90EC236D107C9F70E94AD
:10011000FB030C94E8100C9400003FB7F894809116
:10012000690290916A02A0916B02B0916C0226B5AF
:10013000A89B05C02F3F19F00196A11DB11D3FBF1F
:10014000BA2FA92F982F8827820F911DA11DB11DAD
:10015000BC01CD0142E0660F771F881F991F4A95A9
:10016000D1F708958F929F92AF92BF92CF92DF9274
:10017000EF92FF920F931F93CF93DF93FC012081A7
:100180003181E0915F02F09160022E173F070CF081
:100190004FC0F901EE0FFF1FA0915D02B0915E020A
:1001A000EA0FFB1FA080B180217033276901F1E0C5
:1001B000CF26232B19F42CE93FEF02C024E630E0D0
:1001C0007A018B01EC014901840E951EB401C50131
:1001D0000E94B703892B99F48E0C9F1CB401C501B2
:1001E0000E94B703892B71F4B701680D791DC50111
:1001F0000E94B703892BF9F023E030E005C021E02D
:1002000030E002C022E030E0F80180819181019667
:10021000821793071CF49183808308C0F801118230
:10022000108288819981019699838883C60105C0CF
:1002300081E090E002C08FEF9FEFDF91CF911F919F
:100240000F91FF90EF90DF90CF90BF90AF909F9075
:100250008F900895833081F028F4813099F08230B6
:10026000A1F008958730A9F08830B9F08430D1F436
:10027000809180008F7D03C0809180008F77809374
:100280008000089584B58F7702C084B58F7D84BDCA
:1002900008958091B0008F7703C08091B0008F7D6A
:1002A0008093B00008951F93CF93DF93282F30E001
:1002B000F901EB55FF4F8491F901EF56FF4FD491AF
:1002C000F901E358FF4FC491CC23C1F0162F8111DF
:1002D0000E942A01EC2FF0E0EE0FFF1FED58FF4FB8
:1002E000A591B4919FB7F894111104C08C91D09549
:1002F000D82302C0EC91DE2BDC939FBFDF91CF911E
:100300001F910895CF93DF9390E0FC01EF56FF4FCC
:100310002491FC01E358FF4F8491882361F190E020
:10032000880F991FFC01E759FF4FC591D491FC013B
:10033000ED58FF4FA591B491611109C09FB7F89492
:100340008881209582238883EC912E230BC0623014
:1003500061F49FB7F8948881322F30958323888386
:10036000EC912E2B2C939FBF06C08FB7F894E88199
:100370002E2B28838FBFDF91CF9108958F929F926C
:10038000AF92BF92CF92DF92EF92FF926B017C010E
:100390000E948D004B015C01C114D104E104F10401
:1003A000F1F00E948D00DC01CB0188199909AA099E
:1003B000BB09883E9340A105B10570F321E0C21A44
:1003C000D108E108F10888EE880E83E0981EA11C90
:1003D000B11CC114D104E104F10419F7DDCFFF9081
:1003E000EF90DF90CF90BF90AF909F908F90089547
:1003F0001F920F920FB60F9211242F933F938F935A
:100400009F93AF93BF938091650290916602A091F4
:100410006702B09168023091640223E0230F2D3708
:1004200020F40196A11DB11D05C026E8230F0296F8
:10043000A11DB11D20936402809365029093660212
:10044000A0936702B09368028091690290916A025A
:10045000A0916B02B0916C020196A11DB11D809319
:10046000690290936A02A0936B02B0936C02BF91F1
:10047000AF919F918F913F912F910F900FBE0F9051
:100480001F90189590910001891324C0E8E6F0E0D0
:10049000E4919FEF90930001E130B9F098F0E230E1
:1004A000C9F4909170009D7F9093700091E09093BB
:1004B000B0009091B100987F94609093B100109239
:1004C000B30008C010926E0005C090916F009D7F30
:1004D00090936F0060E00C9453011F920F920FB63F
:1004E0000F9211242F933F934F935F936F937F93BA
:1004F0008F939F93AF93BF93EF93FF93809173017B
:1005000090917401A0917501B0917601892B8A2B8D
:100510008B2B51F190917001E0917101F09172017A
:100520008081892780838091730190917401A091CB
:100530007501B0917601181619061A061B06C4F447
:100540008091730190917401A0917501B091760131
:100550000197A109B1098093730190937401A0934D
:100560007501B093760104C0809100010E9442029F
:10057000FF91EF91BF91AF919F918F917F916F917B
:100580005F914F913F912F910F900FBE0F901F9051
:100590001895CF93DF93962FD72FC82F61E0892F1F
:1005A0000E94820161E08D2F0E94820161E08C2F08
:1005B000DF91CF910C9482011F920F920FB60F9290
:1005C00011242F933F934F935F936F937F938F9358
:1005D0009F93AF93BF93CF93DF93EF93FF932091BC
:1005E000780130E0F901EB55FF4F8491F901EF56A6
:1005F000FF4FD491F901E358FF4FC491CC2379F018
:1006000081110E942A01EC2FF0E0EE0FFF1FE7544A
:10061000FF4FA591B491EC91ED2381E009F480E0C6
:1006200020917C0130917D012F5F3F4F30937D0100
:1006300020937C0190917B01953618F096E0909381
:100640007701909177019430C9F128F4923069F0E4
:100650009330D1F05EC0953009F451C0963009F066
:1006600058C091E09093480251C0811152C020912E
:100670007C0130917D012436310508F442C010928E
:10068000480210927B011CC0813009F042C0E09109
:100690007B0191E09E0F90937B01F0E020917C0123
:1006A00030917D01EE0FFF1FE958FE4F3087278301
:1006B00010927D0110927C0194E029C0811117C035
:1006C000E0917B0191E09E0F90937B01F0E02091FF
:1006D0007C0130917D01EE0FFF1FE958FE4F3087FE
:1006E000278310927D0110927C0193E010C020912D
:1006F0007C0130917D012536310558F007C081110C
:1007000008C010927D0110927C0103C095E0909387
:10071000770190917A019923B9F081110AC08091F3
:100720007901882321F08091790161E009C02D9A37
:100730000BC080917901882331F08091790160E0CC
:100740000E94530101C02D98FF91EF91DF91CF914D
:10075000BF91AF919F918F917F916F915F914F91D9
:100760003F912F910F900FBE0F901F901895CF9231
:10077000DF92EF92FF92CF93DF93EC01072E000CF4
:10078000880B990B0E94CB0F6B017C0120E030E0BD
:1007900040E45FE30E947B1020E030E048E452E454
:1007A0000E94210F0E94930FC617D707D4F020E0B4
:1007B00030E040EA5FE3C701B6010E947B1020E011
:1007C00030E048E452E40E94210F20E030E040E8AD
:1007D0005FE30E94B00E0E94930F21E06C177D072B
:1007E0000CF420E0822F90E0DF91CF91FF90EF900A
:1007F000DF90CF900895CF93DF93CDB7DEB76097AA
:100800000FB6F894DEBF0FBECDBF789484B582607A
:1008100084BD84B5816084BD85B5826085BD85B5A4
:10082000816085BD80916E00816080936E00109222
:10083000810080918100826080938100809181009D
:10084000816080938100809180008160809380002E
:100850008091B10084608093B1008091B00081608C
:100860008093B00080917A00846080937A008091B8
:100870007A00826080937A0080917A008160809310
:100880007A0080917A00806880937A001092C1008B
:1008900060910A0170910B0180910C010E94C902C4
:1008A0006091070170910801809109010E94C902BD
:1008B0006091040170910501809106010E94C902B6
:1008C0006091010170910201809103010E94C902AF
:1008D00060916D0170916E0180916F010E94C9025B
:1008E000F8941092800089E08093810080E293E088
:1008F0009093890080938800109285001092840064
:1009000082E080936F0078948093770110927B014E
:100910008091780160E00E94820110927A018EE756
:1009200091E090935E0280935D0280917B0190E064
:100930009093600280935F028091480290E09093D0
:1009400062028093610280917701853009F0BFC215
:100950008091800190918101885891098D35910590
:1009600088F480917B01843041F4809182019091E0
:1009700083018097479708F488C280917B01843473
:1009800008F05CC080917B018A3108F406C3809135
:100990007E0190917F01843F914090F410925C021F
:1009A00010925B028FEF9FEFDC01809357029093D0
:1009B0005802A0935902B0935A028BE090E07EC295
:1009C000809180019091810185974B9708F0E5C255
:1009D000E4E8F1E082E090E040E050E0BA018C0110
:1009E0000F5F1F4F20917B0130E0021713076CF45B
:1009F0009F0122503109D9012D913C912750310995
:100A00002730310508F4AEC2C80101979595879546
:100A100090935C0280935B020C972CF410925C0222
:100A200010925B02BAC240935702509358026093EF
:100A3000590270935A0284E090E03DC08091820197
:100A400090918301825491098E9708F09BCF80E0AA
:100A500090E040E050E0BA01FC01EC57FE4F2081ED
:100A60003181295031092930310508F08BCFFC0143
:100A7000EA57FE4F2081318127513109223131055A
:100A800008F063C2440F551F661F771F416004962C
:100A90008038910509F780E290E090935C028093A2
:100AA0005B0240935702509358026093590270932F
:100AB0005A0283E090E09093540280935302809115
:100AC000570290915802A0915902B0915A028F3C5E
:100AD0009043AF4FB10509F0F5C18DE391E09887E0
:100AE0008F83EDE02E2EE1E03E2E05E0388A2F8642
:100AF000D1010D90BC91A02DBA87A987CD01A0E0AE
:100B0000B0E08B879C87AD87BE87EF81F8858191A8
:100B10009191F887EF839E838D83809100018530CA
:100B200021F08F3F09F08EC104C0E8E6F0E0149197
:100B300073C000930001E8E6F0E014911F3F09F450
:100B400081C1113009F444C040F1123009F064C091
:100B50001092B0001092B1008091B000826080933A
:100B6000B0008091B10081608093B100E2E8F0E0D4
:100B70008491E82FF0E0EE0FFF1FED58FF4F8591B5
:100B800094919093720180937101E6E9F0E0849171
:100B90008093700112E00C94FC0D14BC15BC84B55C
:100BA000826084BD85B5816085BDE2E8F0E0849116
:100BB000E82FF0E0EE0FFF1FED58FF4F8591949165
:100BC000E6E9F0E0849180934A0210E00C94FC0D79
:100BD0001092800010928100809181008860809343
:100BE000810080918100816080938100E2E8F0E0E3
:100BF0008491E82FF0E0EE0FFF1FED58FF4F859135
:100C00009491E6E9F0E084918093490261E085E007
:100C10000E94820111E086C017FD14C161E085E0E9
:100C20000E948201812F8D7F09F07CC08D819E8181
:100C30004C01A12CB12C60E072E18AE790E0A501A3
:100C400094010E94390E29013A0169017A0191E06B
:100C5000C91AD108E108F108AFEFCA16D104E104BE
:100C6000F10409F008F44CC060E472E48FE090E015
:100C7000A50194010E94390E69017A01B1E0CB1AF5
:100C8000D108E108F108123009F5EFEFCE16D104D2
:100C9000E104F10409F008F478C760E970ED83E03D
:100CA00090E0A50194010E94390E69017A01F1E0FA
:100CB000CF1AD108E108F1082FEFC216D104E104E0
:100CC000F10411F008F0F0C683E025C08FEFC816DC
:100CD000D104E104F104B1F0A8F068E478EE81E019
:100CE00090E0A50194010E94390E69017A0191E01A
:100CF000C91AD108E108F108112309F448C713C73C
:100D000081E001C082E0111106C095B5987F892B62
:100D100085BD48C085E09091B100987F892B809374
:100D2000B10040C08D819E814C01A12CB12C60E0AE
:100D300072E18AE790E0A50194010E94390E6901F1
:100D40007A0191E0C91AD108E108F108C114D1046F
:100D5000A1E0EA06F10488F068E478EE81E090E032
:100D6000A50194010E94390E69017A01B1E0CB1A04
:100D7000D108E108F10883E001C081E0113091F46D
:100D800090918100987F892B809381008B859C8531
:100D9000AD85BE85892B8A2B8B2B61F42FEF3FEF1E
:100DA000A9012FC08B859C85AD85BE85892B8A2B9B
:100DB0008B2B79F0AD81BE81AA0FBB1F29853A85A7
:100DC0000E94580E28EE33E040E050E00E94170EDB
:100DD00003C02FEF3FEFA901113099F0123019F144
:100DE000111130C0C7BC20934F0230935002409382
:100DF00051025093520280916E00826080936E0087
:100E000021C0D0928900C092880020934B02309379
:100E10004C0240934D0250934E0280916F008260CD
:100E200080936F000FC0C092B30020937301309382
:100E30007401409375015093760180917000826037
:100E40008093700092E0290E311CAF85B8896D91B6
:100E50007C9180E090E00E94C90F26E636E646EAE3
:100E60005FE30E947B100E94930F072E000C880BFB
:100E7000990B0E94BE0185E00E944202EDE3F1E081
:100E8000E215F30509F032CE1DC0809184019091E6
:100E900085010997099708F070CD10925C021092B5
:100EA0005B028FEF9FEFDC01809357029093580213
:100EB000A0935902B0935A0283E090E090935402B9
:100EC0008093530282E08093770110927B0161E06E
:100ED0008CE00E94530160E08AE00E94530160E0D0
:100EE00089E00E94530164EF71E080E090E00E948D
:100EF000BE0160E08CE00E94530161E08AE00E9444
:100F0000530160E089E00E94530164EF71E080E0EA
:100F100090E00E94BE0160E08CE00E94530160E01E
:100F20008AE00E94530161E089E00E94530168EE6B
:100F300073E080E090E00E94BE0180E090E0892BA9
:100F400009F4EDCC0E940000EACC208131812650CA
:100F500031092730310508F015CD440F551F661FA4
:100F6000771F95CD20813181235131092F303105F3
:100F700040F4440F551F661F771F41600296349658
:100F80002ECD208131812A5031092930310528F4B4
:100F9000440F551F661F771FF1CF80917B018A3167
:100FA00008F468C080917E0190917F018032934067
:100FB00008F4F4CC8091800190918101C6978697C6
:100FC00008F058C08091820190918301C69786975E
:100FD00008F050C0E6E8F1E083E090E040E050E047
:100FE000BA018C010F5F1F4F20917B0130E0021787
:100FF000130764F49F0122503109D9012D913C91CE
:101000002C5031092B303105D0F0C801019795954E
:10101000879590935C0280935B020C972CF410925E
:101020005C0210925B0226C0409357025093580214
:101030006093590270935A028BE090E03CCD20817E
:101040003181255231092B31310540F4440F551FB0
:10105000661F771F416002963496C3CF208131818D
:101060002C5031092A30310528F4440F551F661FD2
:10107000771FF1CF80917B01823208F458C08091B4
:101080008001909181010697079708F050C0E4E82D
:10109000F1E082E090E0C12CD12C76019C012F5F21
:1010A0003F4F40917B0150E024173507CCF4DF011E
:1010B00012974D915C9111974E515109473151054D
:1010C00040F5CC0CDD1CEE1CFF1C6894C0F8408180
:1010D00051813496435051094530510530F1C901D1
:1010E00001979595879590935C0280935B0240975A
:1010F0002CF410925C0210925B0219C0C09257024D
:10110000D0925802E0925902F0925A028CE090E09C
:10111000D2CC4D915C914C5051094B30510538F473
:10112000CC0CDD1CEE1CFF1CD2CF0296B7CF1C826C
:101130001B8281E090E09A83898380917B018D30CE
:1011400078F41C821B8281E090E09A8389838091ED
:101150005F0290916002181619060CF46CC0C3C0AF
:1011600049E753E0BE016D5F7F4FCE0101960E94BB
:10117000B200892B31F749E753E0BE016D5F7F4F25
:10118000CE0101960E94B2000197D9F649E753E0DB
:10119000BE016D5F7F4FCE0101960E94B200892B88
:1011A00081F6812C912C540100E010E080917B01AC
:1011B00090E029813A812817390774F549E753E00F
:1011C000BE016D5F7F4FCE0101960E94B2007C018F
:1011D00049E753E0BE016D5F7F4FCE0101960E944B
:1011E000B200B1E0EB16F10451F4892B09F0A9CF5C
:1011F000880C991CAA1CBB1C689480F80AC0EF28B4
:1012000009F09FCF019709F09CCF880C991CAA1C6C
:10121000BB1C0F5F1F4FCACF10935C0200935B0291
:101220008092570290925802A0925902B0925A02AC
:1012300081E090E040CCE0915D02F0915E0282E0BE
:1012400090E09A8389838281938189974E9708F0F1
:101250004AC083E090E09A838983848195810B97CB
:101260000A9708F040C04CEB51E0BE016D5F7F4F24
:10127000CE0101960E94B200892BA9F54CEB51E0FA
:10128000BE016D5F7F4FCE0101960E94B2000197B3
:1012900051F5812C912C540100E010E020915F0267
:1012A0003091600289819A81821793070CF026C1E0
:1012B0004CEB51E0BE016D5F7F4FCE0101960E9465
:1012C000B2007C010330110509F0E2C04CEB51E0A3
:1012D000BE016D5F7F4FCE0101960E94B200E816FD
:1012E000F90609F4D5C0E0915D02F0915E028281B9
:1012F0009381C6978697E0F4848195814B974597B3
:10130000B8F4DF0116967F0126ECE20EF11C20E016
:1013100030E040E050E060E070E080E090E00D916F
:101320001C911197095011090830110508F4F5C0F6
:1013300080917B01893370F1828193818957910972
:101340008335910508F425C125C0D90112966D9108
:101350007C911397665171096131710508F045C19F
:10136000D701C601880F991FAA1FBB1F6C017D0101
:101370006894C0F84E5F5F4F2C5F3F4F4B33510571
:1013800009F416C1D9016D917C916A5071096930D7
:101390007105D8F280917B01823231F48281938190
:1013A0000A97099708F431C182819381895791097D
:1013B00083359105D0F480917B018132B0F0848136
:1013C0009581CA97899788F49F012A5F3F4FC12C66
:1013D000D12C760143E050E0D9016D917C916A50A7
:1013E00071096930710508F431C1828193818C548F
:1013F0009109C59778F480917B01843031F4848120
:1014000095818097479708F483C180917B0184344C
:1014100008F065C180917B01863460F182819381FF
:101420000C970B9708F4C6C125C0D90112966D918F
:101430007C9113976E5171096731710508F0F2C103
:10144000D701C601880F991FAA1FBB1F6C017D0120
:101450006894C0F84E5F5F4F2C5F3F4F4534510595
:1014600009F4C3C1D9016D917C916C5071096B3045
:101470007105D8F280917B01883508F43BC28281E6
:101480009381855891098B35910508F4DBC132C2EF
:101490004CEB51E0BE016D5F7F4FCE0101960E9483
:1014A000B2006C010330110569F44CEB51E0BE0150
:1014B0006D5F7F4FCE0101960E94B200C816D9061B
:1014C00009F011CFE114F10459F4CA94CD2809F0C0
:1014D0000ACF880C991CAA1CBB1C689480F80BC00E
:1014E000EA94EF2809F0FFCECD2809F0FCCE880C55
:1014F000991CAA1CBB1C0F5F1F4FD0CE10935C021F
:1015000000935B028092570290925802A092590277
:10151000B0925A0282E090E0CECA12960D911C91D0
:101520001397015111090D30110528F501E00E94B2
:10153000720E21601496AE15BF0509F0F0CE20930F
:101540005702309358024093590250935A0200E2D6
:101550000E948D0E209355023093560285E090E054
:10156000909354028093530280E390E090935C0246
:1015700080935B02A4CA12960D911C91139704509C
:1015800011090530110508F0D3CE01E00E94720E5A
:10159000D1CF84819581CA97899708F0FBCE9F01AE
:1015A0002A5F3F4FC12CD12C760143E050E0EACEB8
:1015B0009F012A583F4FD9012D913C912A50310962
:1015C0002930310508F0E6CE2CE130E030935C02A2
:1015D00020935B02C0925702D0925802E0925902C7
:1015E000F0925A028AE090E066CAD90112966D9193
:1015F0007C911397665071096730710508F0CACE67
:10160000CC0CDD1CEE1CFF1CB5CE20917B01CF0164
:10161000820F911D820F911DDC0112978D919C917B
:101620000A97099708F0C0CE10925C0210925B02F4
:101630008FEF9FEFDC018093570290935802A093A5
:101640005902B0935A0286E090E038CCD901129644
:101650006D917C911397665171096131710578F52F
:10166000D701C601880F991FAA1FBB1F6C017D01FE
:101670006894C0F84E5F5F4F2C5F3F4F4332510577
:1016800009F0AACE9F012A5B3F4FD9012D913C91D1
:101690002A5031092930310508F0A7CE20E130E089
:1016A00030935C0220935B02C0925702D0925802A2
:1016B000E0925902F0925A0286E090E0FCC9D9010A
:1016C00012966D917C911397665071096730710580
:1016D00008F08BCECC0CDD1CEE1CFF1CCBCF848124
:1016E000958189549109C39708F094CE9F012A5F90
:1016F0003F4FBF016A577F4FC12CD12C7601D901D2
:101700004D915C914950510949305105C8F082CE44
:10171000868197810997099708F077CE10925C022D
:1017200010925B028FEF9FEFDC0180935702909342
:101730005802A0935902B0935A0287E090E0BECBC2
:10174000D90112964D915C9113974651510941313F
:10175000510500F5D701C601880F991FAA1FBB1FAD
:101760006C017D016894C0F82C5F3F4F62177307CE
:1017700031F620E230E030935C0220935B02C092AD
:101780005702D0925802E0925902F0925A0287E032
:1017900090E091C9D90112964D915C9113974650F2
:1017A00051094730510508F035CECC0CDD1CEE1C3C
:1017B000FF1CDACF848195810997099708F05ACEEA
:1017C000868197818C974F9708F054CE80859185BC
:1017D00089974D9708F04ECE9F01265F3F4FC12C51
:1017E000D12C760145E050E03DCE9F0126573F4F7A
:1017F000D9012D913C912C5031092B30310508F045
:1018000039CE20E230E030935C0220935B02C0923C
:101810005702D0925802E0925902F0925A0288E0A0
:1018200090E049C9D90112966D917C911397695046
:1018300071096930710508F01DCECC0CDD1CEE1C61
:10184000FF1C08CE84819581825491098E9708F0FF
:1018500051C08F01045C1F4F8DE190E020E030E02B
:1018600040917B0150E04450510984179507ACF436
:10187000A80142505109DA014D915C91495051093A
:101880004830510510F136C0D8014D915C91485156
:1018900051094231510558F1CB0101979595879532
:1018A00090935C0280935B028A9724F1C901330F05
:1018B000AA0BBB0B8093570290935802A093590236
:1018C000B0935A0289E090E0F6C8BC016F5F7F4F89
:1018D000D8014D915C914750510947305105A0F610
:1018E000220F331F216002960C5F1F4FB9CF220FCA
:1018F000331FF9CF80917B018032E1F482819381A3
:1019000006970697B8F4848195810997099790F412
:101910009F012A5F3F4FBF01625C7F4FC12CD12CDA
:101920007601D9014D915C914650510946305105DF
:1019300008F47EC080915F02909160029E838D8347
:1019400006970CF4BFCA8F010E5F1F4FB3E02B2E1A
:10195000312C85ECC82E8DE9D82E8CE1E82E81E85B
:10196000F82ED80114966D917C911597AD90BC908E
:1019700080E090E00E94C90F2B013C01B50180E09E
:1019800090E00E94C90F4B015C012DEC3CEC4CE453
:101990005FE30E947B109B01AC01C301B2010E9476
:1019A0001C0F87FD17C02DEC3CEC4CE45FE3C3013A
:1019B000B2010E947B109B01AC01C501B4010E94E1
:1019C0001C0FE82F880FFF0BEE27FF0FEE1FFF27DE
:1019D000319602C0E0E0F0E0A701960163E971E012
:1019E00080E091E00E94070E6F01FF0FEE08FF08F4
:1019F000C626D726E826F926BFEF2B1A3B0A0E5F2C
:101A00001F4FED81FE81E215F30509F0AACFC092C8
:101A10005702D0925802E0925902F0925A0280E2A4
:101A200090E090935C0280935B028FEF9FEF43C83E
:101A3000D90112964D915C91139749515109433147
:101A4000510510F5D701C601880F991FAA1FBB1FAA
:101A50006C017D016894C0F82C5F3F4F2617370753
:101A600009F05FCF2EE030E030935C0220935B0200
:101A7000C0925702D0925802E0925902F0925A0254
:101A80008FE090E00C945B05D90112964D915C912A
:101A90001397495051094930510508F04BCFCC0CF0
:101AA000DD1CEE1CFF1CD8CF68E478EE81E090E0EE
:101AB000A50194010E94390E69017A0191E0C91AC9
:101AC000D108E108F108AFEFCA16D104E104F1042E
:101AD00041F138F164E274EF80E090E0A5019401F7
:101AE0000E94390E69017A01A1E0CA1AD108E10801
:101AF000F108BFEFCB16D104E104F10409F008F4BA
:101B000009C962E17AE780E090E0A50194010E94B2
:101B1000390E69017A01E1E0CE1AD108E108F10835
:101B200019C084E0F8C8EFEFCE16D104E104F10447
:101B300009F008F45FC062E17AE780E090E0A50177
:101B400094010E94390E69017A01B1E0CB1AD108E3
:101B5000E108F1082FEFC216D104E104F10499F075
:101B600090F0D301C2012AE0B595A7959795879586
:101B70002A95D1F76C017D01F1E0CF1AD108E10877
:101B8000F10887E0C8C886E0C6C882E0C4C8AFEFE5
:101B9000CA16D104E104F10459F150F162E17AE787
:101BA00080E090E0A50194010E94390E69017A015C
:101BB00081E0C81AD108E108F1089FEFC916D104E5
:101BC000E104F10499F090F0D301C2013AE0B59537
:101BD000A795979587953A95D1F76C017D01E1E03E
:101BE000CE1AD108E108F10885E08FC884E08DC8DD
:101BF00083E08BC884E087C861E085E00E948201B1
:101C000015C8E7E7F1E082E0818313820895DB01E4
:101C10008F939F930E94670EBF91AF91A29F800DFB
:101C2000911DA39F900DB29F900D11240895A1E2E4
:101C30001A2EAA1BBB1BFD010DC0AA1FBB1FEE1F46
:101C4000FF1FA217B307E407F50720F0A21BB30B91
:101C5000E40BF50B661F771F881F991F1A9469F70D
:101C600060957095809590959B01AC01BD01CF0169
:101C70000895052E97FB1EF400940E94500E57FD08
:101C800007D00E94170E07FC03D04EF40C94500EA0
:101C900050954095309521953F4F4F4F5F4F089598
:101CA00090958095709561957F4F8F4F9F4F0895C8
:101CB000A29FB001B39FC001A39F700D811D11248D
:101CC000911DB29F700D811D1124911D08950E94D8
:101CD000580EA59F900DB49F900DA49F800D911D4F
:101CE000112408950F93083090F0982F872F762FA6
:101CF000652F542F432F322F22270850F4CF220F65
:101D0000331F441F551F661F771F881F991F0A9591
:101D1000B2F70F91089597FB10F8169400080F93EF
:101D2000083098F00850232F342F452F562F672F57
:101D3000782F892F902DF4CF0594979587957795D7
:101D4000679557954795379527950A95AAF70F9167
:101D50000895EE0FFF1F0590F491E02D099450585F
:101D6000BB27AA270E94C70E0C9441100E94331073
:101D700038F00E943A1020F039F49F3F19F426F40D
:101D80000C9430100EF4E095E7FB0C942A10E92F28
:101D90000E94521058F3BA17620773078407950719
:101DA00020F079F4A6F50C9474100EF4E0950B2E47
:101DB000BA2FA02D0B01B90190010C01CA01A0019D
:101DC0001124FF27591B99F0593F50F4503E68F1F8
:101DD0001A16F040A22F232F342F4427585FF3CF39
:101DE000469537952795A795F0405395C9F77EF40A
:101DF0001F16BA0B620B730B840BBAF09150A1F053
:101E0000FF0FBB1F661F771F881FC2F70EC0BA0FD8
:101E1000621F731F841F48F4879577956795B79560
:101E2000F7959E3F08F0B0CF9395880F08F099275B
:101E3000EE0F9795879508950E94061008F481E0AB
:101E400008950E94350F0C9441100E943A1058F0EA
:101E50000E94331040F029F45F3F29F00C942A10BF
:101E600051110C9475100C9430100E94521068F3AC
:101E70009923B1F3552391F3951B550BBB27AA2743
:101E800062177307840738F09F5F5F4F220F331F7D
:101E9000441FAA1FA9F335D00E2E3AF0E0E832D045
:101EA00091505040E695001CCAF72BD0FE2F29D048
:101EB000660F771F881FBB1F261737074807AB071A
:101EC000B0E809F0BB0B802DBF01FF2793585F4F8F
:101ED0003AF09E3F510578F00C942A100C9475103E
:101EE0005F3FE4F3983ED4F3869577956795B79571
:101EF000F7959F5FC9F7880F911D9695879597F97C
:101F00000895E1E0660F771F881FBB1F62177307F4
:101F10008407BA0720F0621B730B840BBA0BEE1F09
:101F200088F7E09508950E949A0F6894B1110C9477
:101F3000751008950E945A1088F09F5798F0B92F95
:101F40009927B751B0F0E1F0660F771F881F991FEE
:101F50001AF0BA95C9F714C0B13091F00E9474100C
:101F6000B1E008950C947410672F782F8827B85F1C
:101F700039F0B93FCCF3869577956795B395D9F746
:101F80003EF490958095709561957F4F8F4F9F4F50
:101F90000895E89409C097FB3EF49095809570955C
:101FA00061957F4F8F4F9F4F9923A9F0F92F96E9A5
:101FB000BB279395F695879577956795B795F1111A
:101FC000F8CFFAF4BB0F11F460FF1BC06F5F7F4FB7
:101FD0008F4F9F4F16C0882311F096E911C07723C9
:101FE00021F09EE8872F762F05C0662371F096E8D2
:101FF000862F70E060E02AF09A95660F771F881FA1
:10200000DAF7880F9695879597F90895990F000844
:10201000550FAA0BE0E8FEEF16161706E807F907BA
:10202000C0F012161306E407F50798F0621B730B55
:10203000840B950B39F40A2661F0232B242B252BD6
:1020400021F408950A2609F4A140A6958FEF811D79
:10205000811D089597F99F6780E870E060E008951A
:102060009FEF80EC089500240A94161617061806B0
:102070000906089500240A9412161306140605068C
:102080000895092E0394000C11F4882352F0BB0F1D
:1020900040F4BF2B11F460FF04C06F5F7F4F8F4F80
:1020A0009F4F089557FD9058440F551F59F05F3FBB
:1020B00071F04795880F97FB991F61F09F3F79F06A
:1020C00087950895121613061406551FF2CF4695EC
:1020D000F1DF08C0161617061806991FF1CF86956E
:1020E0007105610508940895E894BB276627772752
:1020F000CB0197F908950E948E100C9441100E9414
:10210000331038F00E943A1020F0952311F00C940F
:102110002A100C94301011240C9475100E94521047
:1021200070F3959FC1F3950F50E0551F629FF0012A
:10213000729FBB27F00DB11D639FAA27F00DB11D43
:10214000AA1F649F6627B00DA11D661F829F2227CC
:10215000B00DA11D621F739FB00DA11D621F839F53
:10216000A00D611D221F749F3327A00D611D231F29
:10217000849F600D211D822F762F6A2F11249F5777
:1021800050409AF0F1F088234AF0EE0FFF1FBB1F7A
:10219000661F771F881F91505040A9F79E3F510539
:1021A00080F00C942A100C9475105F3FE4F3983E75
:1021B000D4F3869577956795B795F795E7959F5FE3
:1021C000C1F7FE2B880F911D9695879597F9089575
:0421D000F894FFCFB1
:1021D400FF0807060412130F11100D0E0B7D007D6E
:1021E400007D00FA00FA00FA00FA00C8007D007DC4
:1021F400007D007D007D007D007D00FA00FA00FA7C
:1022040000FA00C8007D007D007D007D00E402E44A
:10221400024B02EE01EE019302930293023F033F4D
:10222400037003DC0370037003700393024B02E436
:1022340002E402E40293029302E40293020C0A0908
:00000001FF
